:100000001BC035C034C033C09FC2C6C230C02FC071
:100010002EC02DC02CC02BC088C329C028C027C02B
:1000200026C025C024C0CFC04DC136C139C13DC195
:1000300033C136C13AC13EC111241FBECFEFD2E059
:10004000DEBFCDBF11E0A0E0B1E0EAEAF9E002C016
:1000500005900D92A830B107D9F721E0A8E0B1E0F2
:1000600001C01D92A133B207E1F7A2D19CC4C8CF51
:10007000FC011082618313820895FC01808182302B
:10008000A1F018F4813031F02CC08330A1F084301D
:10009000F9F027C0662331F092819150928391113B
:1000A00023C014C0818182830DC061110FC0818182
:1000B000828383E019C0611107C0928191509283BD
:1000C000911112C084E010C08181828382E00CC053
:1000D0008381811113826623A9F38181828381E068
:1000E00003C0662379F3F2CF80830895FC019081E9
:1000F0009250923030F48381811106C081E090E00B
:10010000089580E090E0089582E090E00895FC0179
:1001100090819250923010F481E083830895109280
:1001200009011092080130C3EAE0F1E0119281E088
:10013000E231F807D9F78AE091E03ED3809164007C
:100140008F778093640086E68093BA0085EC809375
:10015000BC00E5CF883030F0E2EFE80FE23040F04D
:100160008FEF0895E82FF0E0E65FFE4F808108955D
:1001700081E00895EAE0F1E09781892B8783089573
:10018000EAE0F1E080959781892387830895E82F3D
:10019000862FE33018F4E13040F41CC3E43090F0D3
:1001A000E63040F0E73069F00895F0E0E65FFE4F9A
:1001B00060830895F0E0E65FFE4F608382E090E0A8
:1001C0001CC2DECF08951F920F920FB60F9211241A
:1001D0002F933F934F935F936F937F938F939F934F
:1001E000AF93BF93EF93FF938091B900887F8038DE
:1001F00071F040F4882359F1803659F58091090156
:10020000886015C0883AE9F0883BD9F022C0809117
:10021000090183FF0FC08091BB008093080180918A
:100220000901877F80930901809109018160809392
:1002300009010FC06091BB0080910801A8DF85E82B
:1002400009C08091080186DF8093BB0002C0109234
:10025000BC0085EC8093BC00FF91EF91BF91AF9102
:100260009F918F917F916F915F914F913F912F91CE
:100270000F900FBE0F901F901895FC01448155817F
:1002800022813381E0818E2F90E088309105E0F467
:10029000FC01EC5EFF4F09942417350788F412C067
:1002A00058982417350750F40EC02417350750F01E
:1002B000589A04C02417350718F45898599A089585
:1002C000589A01C0589859980895FC0110821182DB
:1002D00013821282158214820895CF93DF93EC016A
:1002E0008881861719F068831D821C828981841792
:1002F00019F049831D821C82E981E150E43040F409
:10030000F0E0EE0FFF1FE050FF4F6081718102C0EF
:100310006FEF7FEF80E090E030E040E050E008D306
:100320002FEF30E040E050E01CD38A819B818217A0
:10033000930721F03B832A831D821C82CE01DF912B
:10034000CF919BCFDC011196EC91E150E43040F469
:10035000F0E0EE0FFF1FE050FF4F4081518102C0DF
:100360004FEF5FEFFC01248135812417350728F416
:100370002F5F3F4F3583248302C0158214827DCFC7
:1003800080911301813031F482E090E0B1D1719A13
:100390001092130180911201813039F483E090E0D2
:1003A000A7D13F9847981092120175D11DD1B7CEB1
:1003B00065D18DEA80936400B7DE78D189E191E060
:1003C00084DF6AE085E191E053DE80916C00806813
:1003D00080936C0080916D00846080936D008091AB
:1003E0006800866080936800CBDF269A2E9820E014
:1003F00040E061E089E191E070DF789411E083B73B
:10040000897F83BF83B7816083BF889583B78E7FE1
:1004100083BF2E9AFDD0EC01892BD9F1C830D105CC
:1004200019F1A8F4C130D105E1F0C230D10571F560
:1004300085E090DE082F84E08DDE482F4F70682F16
:1004400062956F70202F89E191E047DF1FC0C031B6
:10045000D10599F0C032D105C9F480E48BDE90DF7C
:1004600015C084E087DE12C061E070E082E090E0B9
:1004700034D171981093130109C066E970E083E0EC
:1004800090E02BD147983F9A10931201CE01E0D013
:10049000C1CF36D1882309F455C05E9A89E191E035
:1004A00051DFDBD166B1617085E191E0E6DD85E188
:1004B00091E01CDEEC01019779F461E070E080E0EE
:1004C00090E00BD168E873E181E090E006D185E12E
:1004D00091E01DDE1093140180911401813091F49C
:1004E000CD2B81F481E090E011D1882311F080E1DF
:1004F00006C080E090E00AD1882311F081E03ADE66
:100500001092140180911301813059F482E090E03F
:10051000FDD0882331F082E090E0EAD0719A109209
:10052000130180911201813061F483E090E0EED0FC
:10053000882339F083E090E0DBD03F984798109211
:1005400012015E982E985BCF1F920F920FB60F92FA
:1005500011242F933F934F935F936F937F938F93C8
:100560009F93AF93BF93EF93FF93379B03C080E2BA
:1005700090E043D0D99AFF91EF91BF91AF919F91B5
:100580008F917F916F915F914F913F912F910F903C
:100590000FBE0F901F9018951F920F920FB60F92DB
:1005A00011242F933F934F935F936F937F938F9378
:1005B0009F93AF93BF93EF93FF934A9903C081E05A
:1005C00090E01BD0DA9AFF91EF91BF91AF919F918C
:1005D0008F917F916F915F914F913F912F910F90EC
:1005E0000FBE0F901F9018951092220110922101BA
:1005F0001092200110921F01089520911F01309147
:100600002001822B932B9093200180931F0108954A
:1006100080911F01909120010097C9F020E030E007
:1006200061E070E0AB01022E02C0440F551F0A9436
:10063000E2F7FA01E823F923EF2B41F42F5F3F4F54
:100640002031310579F780E090E00895CA010895DE
:1006500020911F0130912001AC0142235323452BEF
:1006600051F0AC014095509524233523309320015F
:1006700020931F01089580E090E0089588E08BB9F1
:100680009BEE9AB988B917B815B881E484B982E0AD
:100690008EB98DB90895E4E2F1E0118210821382DF
:1006A000128215821482178216820895F4DFE4E61E
:1006B000F0E080818F7D8083E1E6F0E080E8808358
:1006C000108216BC8DE787BD8BE085BD15BA82E030
:1006D00080936E001092230108958430910538F4C0
:1006E000880F991FFC01EC5DFE4F718360830895B4
:1006F000880F991FFC01EC5DFE4F11821082089556
:100700008091230181111092230108958430910575
:1007100050F4880F991FFC01EC5DFE4F2081318160
:1007200081E0232B09F080E008951F920F920FB60D
:100730000F9211242F933F938F939F93EF93FF93E7
:1007400080E090E0FC01EE0FFF1FEC5DFE4F20818A
:100750003181232B31F020813181215031093183C6
:10076000208301968430910569F781E0809323010D
:10077000A99AFF91EF919F918F913F912F910F90A7
:100780000FBE0F901F901895E0912D01F0912E0152
:10079000309789F013821092300110922F019081CE
:1007A000892F887F8083339B06C01F9B02C093FFE5
:1007B00002C0856080830895FC01009751F09093FA
:1007C0002E0180932D01108288E7818380EF828340
:1007D000DBCF0895E0912D01F0912E013097E1F1EA
:1007E000843471F158F48032A1F118F4813059F158
:1007F00008958232F9F08333B9F008958B3BE9F024
:1008000028F4853559F08A3A31F008958C3C49F046
:100810008D3D69F00895808181601DC080818E7F4B
:100820001AC08081846017C080818B7F14C0808152
:10083000886011C08081877F0EC0808182600BC07C
:1008400080818D7F08C013821092300110922F0199
:10085000089580818F7C808308950F931F93CF9399
:10086000DF9300912D0110912E010115110509F45E
:100870005AC0C6B186B1C2708470C82BD0912C0109
:10088000CD1799F0DC27D1FF0AC0C1FF04C08CEC62
:10089000A1DF8AEA01C085E59DDF81E09BDFD2FF11
:1008A00002C081E097DFC0932C01F801208120FF76
:1008B00034C080912F0190913001019690933001C6
:1008C00080932F01893E934070F1F80183818F5FFF
:1008D00083831092300110922F019181891308C0F7
:1008E000822F8061808321FF03C088E090E085DE55
:1008F000E0912D01F0912E0193818281981313C014
:100900008081982F9062908382FF0DC080E190E0FB
:10091000DF91CF911F910F9170CEF8011382109249
:10092000300110922F01DF91CF911F910F91089507
:10093000EE27FF27AA27BB2708C0A20FB31FE41F7B
:10094000F51F220F331F441F551F969587957795E6
:10095000679598F37040A9F7009799F7BD01CF010B
:100960000895A1E21A2EAA1BBB1BFD010DC0AA1FF0
:10097000BB1FEE1FFF1FA217B307E407F50720F008
:10098000A21BB30BE40BF50B661F771F881F991F83
:100990001A9469F760957095809590959B01AC01CC
:0A09A000BD01CF010895F894FFCFC8
:0809AA00E803F401FA007D00EE
:00000001FF
