:100000001BC035C034C033C000C327C34EC32FC08C
:100010002EC02DC02CC02BC03EC429C028C027C074
:1000200026C025C024C0DBC06AC153C156C15AC115
:1000300050C153C157C15BC111241FBECFEFD2E0E5
:10004000DEBFCDBF11E0A0E0B1E0E4E0FBE002C024
:1000500005900D92AA30B107D9F721E0AAE0B1E0EE
:1000600001C01D92A833B207E1F7CAD149C5C8CF74
:10007000FC011082618313820895FC01808182302B
:10008000A1F018F4813031F02CC08330A1F084301D
:10009000F9F027C0662331F092819150928391113B
:1000A00023C014C0818182830DC061110FC0818182
:1000B000828383E019C0611107C0928191509283BD
:1000C000911112C084E010C08181828382E00CC053
:1000D0008381811113826623A9F38181828381E068
:1000E00003C0662379F3F2CF80830895FC019081E9
:1000F0009250923030F48381811106C081E090E00B
:10010000089580E090E0089582E090E00895FC0179
:1001100090819250923010F481E083830895F89496
:10012000ECEBF0E084E9808310920A0181E0809397
:10013000010185EC80837894D4C3EBE0F1E0119267
:1001400081E0E531F807D9F78BE091E0E6D38091C3
:1001500064008F778093640086E68093BA0085EC14
:100160008093BC00DCCF8E3079F040F4883050F4BE
:10017000E82FF0E0E55FFE4F808108958F3011F4A5
:1001800081E008958FEF089584E00895EBE0F1E0B9
:100190009781892B87830895EBE0F1E08095978123
:1001A000892387830895E82F862FE33018F4E13000
:1001B00040F4BDC3E43090F0E63040F0E73069F041
:1001C0000895F0E0E55FFE4F60830895F0E0E55F9D
:1001D000FE4F608384E090E09BC2DECF08951F92C3
:1001E0000F920FB60F9211242F933F934F935F936B
:1001F0006F937F938F939F93AF93BF93EF93FF93EF
:100200008091B900887F803889F050F48823D9F133
:100210008036E1F585EC8093BC001092010139C075
:10022000883AF9F0883BE9F0883881F58091BB0085
:100230008093000185EC8093BC0080910101609166
:100240000001882341F080910A0191E0980F90937A
:100250000A01A9DF1EC060930A0181E080930101B9
:100260000CC0809100018093BB0085EC8093BC00A2
:1002700080910A018F5F80930A0180910A0173DFE8
:100280008093000106C084E98093BC0085EC8093D4
:10029000BC00FF91EF91BF91AF919F918F917F91A2
:1002A0006F915F914F913F912F910F900FBE0F90E3
:1002B0001F901895FC014481558122813381E08192
:1002C0008E2F90E088309105E0F4FC01EC5EFF4F4A
:1002D00009942417350788F412C058982417350755
:1002E00050F40EC02417350750F0589A04C0241754
:1002F000350718F45898599A0895589A01C0589893
:1003000059980895FC01108211821382128215827D
:1003100014820895CF93DF93EC018881861719F03A
:1003200068831D821C828981841719F049831D828C
:100330001C82E981E150E43040F4F0E0EE0FFF1F51
:10034000EE5FFE4F6081718102C06FEF7FEF80E052
:1003500090E030E040E050E098D32FEF30E040E014
:1003600050E0ACD38A819B818217930721F03B83B5
:100370002A831D821C82CE01DF91CF919BCFDC01AD
:100380001196EC91E150E43040F4F0E0EE0FFF1FE5
:10039000EE5FFE4F4081518102C04FEF5FEFFC01E5
:1003A000248135812417350728F42F5F3F4F35838B
:1003B000248302C0158214827DCF80911701813081
:1003C00031F482E090E03ED2719A10921701809150
:1003D0001601813039F483E090E034D23F98479899
:1003E0001092160180911501813039F484E090E07B
:1003F00029D26A98729810921501F5D17ED18FCECC
:10040000F894E3D18DEA8093640097DEFBD18DE10F
:1004100091E078DF69E189E191E02ADE80916C006A
:10042000806880936C0080916D00846080936D0083
:1004300080916A00816080936A00809168008E607C
:1004400080936800BADF269A2E98569A5E9820E02C
:1004500040E061E08DE191E05DDF789411E083B7E9
:10046000897F83BF83B7816083BF889583B78E7F81
:1004700083BF2E9AE12CF12C7DD1EC01892B09F45C
:100480004FC0C031D105A9F158F4C230D105D9F01F
:10049000C430D105F9F0C130D105E9F5DED13BC05A
:1004A000C034D10599F0C038D10561F1C032D10511
:1004B00091F566E970E083E090E0B9D147983F9A02
:1004C0001093160128C084E061DE25C080E45EDE62
:1004D00074DF21C085E047DE082F84E044DE482F2A
:1004E0004F70682F62956F70202F8DE191E012DFC1
:1004F00012C061E070E082E090E099D171981093B1
:10050000170109C064EF71E084E090E090D1729827
:100510006A9A10931501CE0111D1E82AF92AACCFBD
:10052000E0FE71C05E9A8DE191E029DF43D266B1B1
:10053000617089E191E0A1DD89E191E0D7DDEC0115
:100540000197A1F46AE070E080E090E070D168E883
:1005500073E181E090E06BD160E375E785E090E0C6
:1005600066D189E191E0D3DD1093180180911801E3
:100570008130C9F4CD2BB9F41092180185E090E0D8
:100580007BD1882311F080E20DC081E090E074D12E
:10059000882311F080E106C080E090E06DD18823CF
:1005A00011F081E0F3DD80911701813059F482E090
:1005B00090E062D1882331F082E090E043D1719ADB
:1005C0001092170180911601813061F483E090E070
:1005D00053D1882339F083E090E034D13F98479895
:1005E0001092160180911501813061F484E090E051
:1005F00043D1882339F084E090E024D16A9872983E
:10060000109215015E982E982ACF1F920F920FB666
:100610000F9211242F933F934F935F936F937F9388
:100620008F939F93AF93BF93EF93FF93379B03C039
:1006300080E490E06DD0D99AFF91EF91BF91AF9196
:100640009F918F917F916F915F914F913F912F91EA
:100650000F900FBE0F901F9018951F920F920FB61C
:100660000F9211242F933F934F935F936F937F9338
:100670008F939F93AF93BF93EF93FF934A9903C0D8
:1006800082E090E045D0DA9AFF91EF91BF91AF916F
:100690009F918F917F916F915F914F913F912F919A
:1006A0000F900FBE0F901F9018951F920F920FB6CC
:1006B0000F9211242F933F934F935F936F937F93E8
:1006C0008F939F93AF93BF93EF93FF93609903C072
:1006D00080E890E01DD0DB9AFF91EF91BF91AF9140
:1006E0009F918F917F916F915F914F913F912F914A
:1006F0000F900FBE0F901F901895F894109226013E
:1007000010922501109224011092230178940895EB
:10071000F8942091230130912401822B932B909304
:1007200024018093230178940895F8942091230163
:10073000309124017894822393230895CF93DF93FB
:10074000EC01F3DF892B81F0F894809123019091E3
:1007500024019E01209530958223932390932401B8
:1007600080932301789402C0C0E0D0E0CE01DF91F5
:10077000CF910895EF92FF920F931F93CF93DF9342
:100780008FEF9FEFD2DF892B19F480E090E016C045
:10079000C0E0D0E0EE24E394F12C87010C2E02C0DF
:1007A000000F111F0A94E2F7C801BFDF892B29F45B
:1007B0002196C031D10589F7E8CFC801DF91CF91EB
:1007C0001F910F91FF90EF90089588E08BB99BEEF9
:1007D0009AB988B917B815B881E484B983E08EB99D
:1007E00082E08DB90895E7E2F1E011821082138270
:1007F0001282158214821782168211861086138641
:1008000012860895F0DFE4E6F0E080818F7D80833A
:10081000E1E6F0E080E88083108216BC8DE787BDBA
:100820008BE085BD15BA82E080936E000895863016
:10083000910538F4880F991FFC01E95DFE4F718323
:10084000608308958630910538F4880F991FFC0164
:10085000E95DFE4F118210820895E7E2F1E08081A8
:100860009181009719F0019791838083329681E0FE
:10087000E333F807A1F708958630910550F4880F07
:10088000991FFC01E95DFE4F81E020813181232B1E
:1008900009F080E008951F920F920FB60F92112475
:1008A0002F933F934F935F936F937F938F939F9378
:1008B000AF93BF93EF93FF9381E090E029DFA99A74
:1008C000FF91EF91BF91AF919F918F917F916F9128
:1008D0005F914F913F912F910F900FBE0F901F90FE
:1008E0001895E0913401F09135013097A9F088E72F
:1008F000818380EF82831382109237011092360138
:100900009081892F887F8083339B06C01F9B02C004
:1009100093FF02C0856080830895009739F090931B
:10092000350180933401FC011082DBCF0895E09102
:100930003401F09135013097E1F1843471F158F4CC
:100940008032A1F118F4813059F108958232F9F022
:100950008333B9F008958B3BE9F028F4853559F0DD
:100960008A3A31F008958C3C49F08D3D69F0089544
:10097000808181601DC080818E7F1AC080818460EB
:1009800017C080818B7F14C08081886011C08081F6
:10099000877F0EC0808182600BC080818D7F08C000
:1009A00013821092370110923601089580818F7C56
:1009B000808308950F931F93CF93DF9300913401A9
:1009C000109135010115110509F45AC0C6B186B15F
:1009D000C2708470C82BD0913301CD1799F0DC27F9
:1009E000D1FF0AC0C1FF04C08CECA1DF8AEA01C0BC
:1009F00085E59DDF81E09BDFD2FF02C081E097DFCC
:100A0000C0933301F801208120FF34C0809136016A
:100A10009091370101969093370180933601893E7A
:100A2000934070F1F80183818F5F838310923701C7
:100A3000109236019181891308C0822F80618083D2
:100A400021FF03C080E190E063DEE0913401F0918A
:100A5000350193818281981313C08081982F906211
:100A6000908382FF0DC080E290E0DF91CF911F91D3
:100A70000F914ECEF8011382109237011092360179
:100A8000DF91CF911F910F910895EE27FF27AA279D
:100A9000BB2708C0A20FB31FE41FF51F220F331F8F
:100AA000441F551F969587957795679598F37040E5
:100AB000A9F7009799F7BD01CF010895A1E21A2E79
:100AC000AA1BBB1BFD010DC0AA1FBB1FEE1FFF1FF2
:100AD000A217B307E407F50720F0A21BB30BE40B42
:100AE000F50B661F771F881F991F1A9469F7609589
:100AF0007095809590959B01AC01BD01CF01089543
:040B0000F894FFCF97
:0A0B0400FF01E803F401FA007D0090
:00000001FF
